{
  "contractName": "Remittance",
  "abi": [
    {
      "inputs": [],
      "stateMutability": "nonpayable",
      "type": "constructor"
    },
    {
      "anonymous": false,
      "inputs": [
        {
          "indexed": true,
          "internalType": "address",
          "name": "sender",
          "type": "address"
        },
        {
          "indexed": false,
          "internalType": "uint256",
          "name": "amount",
          "type": "uint256"
        }
      ],
      "name": "Deposit",
      "type": "event"
    },
    {
      "anonymous": false,
      "inputs": [
        {
          "indexed": true,
          "internalType": "address",
          "name": "receiver",
          "type": "address"
        },
        {
          "indexed": false,
          "internalType": "uint256",
          "name": "amount",
          "type": "uint256"
        }
      ],
      "name": "Withdrawal",
      "type": "event"
    },
    {
      "inputs": [
        {
          "internalType": "address",
          "name": "",
          "type": "address"
        }
      ],
      "name": "balances",
      "outputs": [
        {
          "internalType": "uint256",
          "name": "",
          "type": "uint256"
        }
      ],
      "stateMutability": "view",
      "type": "function"
    },
    {
      "inputs": [],
      "name": "owner",
      "outputs": [
        {
          "internalType": "address",
          "name": "",
          "type": "address"
        }
      ],
      "stateMutability": "view",
      "type": "function"
    },
    {
      "inputs": [],
      "name": "deposit",
      "outputs": [],
      "stateMutability": "payable",
      "type": "function"
    },
    {
      "inputs": [
        {
          "internalType": "uint256",
          "name": "amount",
          "type": "uint256"
        }
      ],
      "name": "withdraw",
      "outputs": [],
      "stateMutability": "nonpayable",
      "type": "function"
    },
    {
      "inputs": [],
      "name": "getBalance",
      "outputs": [
        {
          "internalType": "uint256",
          "name": "",
          "type": "uint256"
        }
      ],
      "stateMutability": "view",
      "type": "function"
    }
  ],
  "bytecode": "0x608060405234801561000f575f80fd5b50335f806101000a81548173ffffffffffffffffffffffffffffffffffffffff021916908373ffffffffffffffffffffffffffffffffffffffff1602179055506106de8061005c5f395ff3fe608060405260043610610049575f3560e01c806312065fe01461004d57806327e235e3146100775780632e1a7d4d146100b35780638da5cb5b146100db578063d0e30db014610105575b5f80fd5b348015610058575f80fd5b5061006161010f565b60405161006e91906103f0565b60405180910390f35b348015610082575f80fd5b5061009d60048036038101906100989190610467565b610153565b6040516100aa91906103f0565b60405180910390f35b3480156100be575f80fd5b506100d960048036038101906100d491906104bc565b610168565b005b3480156100e6575f80fd5b506100ef6102d0565b6040516100fc91906104f6565b60405180910390f35b61010d6102f3565b005b5f60015f3373ffffffffffffffffffffffffffffffffffffffff1673ffffffffffffffffffffffffffffffffffffffff1681526020019081526020015f2054905090565b6001602052805f5260405f205f915090505481565b8060015f3373ffffffffffffffffffffffffffffffffffffffff1673ffffffffffffffffffffffffffffffffffffffff1681526020019081526020015f205410156101e8576040517f08c379a00000000000000000000000000000000000000000000000000000000081526004016101df90610569565b60405180910390fd5b8060015f3373ffffffffffffffffffffffffffffffffffffffff1673ffffffffffffffffffffffffffffffffffffffff1681526020019081526020015f205f82825461023491906105b4565b925050819055503373ffffffffffffffffffffffffffffffffffffffff166108fc8290811502906040515f60405180830381858888f1935050505015801561027e573d5f803e3d5ffd5b503373ffffffffffffffffffffffffffffffffffffffff167f7fcf532c15f0a6db0bd6d0e038bea71d30d808c7d98cb3bf7268a95bf5081b65826040516102c591906103f0565b60405180910390a250565b5f8054906101000a900473ffffffffffffffffffffffffffffffffffffffff1681565b5f3411610335576040517f08c379a000000000000000000000000000000000000000000000000000000000815260040161032c90610657565b60405180910390fd5b3460015f3373ffffffffffffffffffffffffffffffffffffffff1673ffffffffffffffffffffffffffffffffffffffff1681526020019081526020015f205f8282546103819190610675565b925050819055503373ffffffffffffffffffffffffffffffffffffffff167fe1fffcc4923d04b559f4d29a8bfc6cda04eb5b0d3c460751c2402c5c5cc9109c346040516103ce91906103f0565b60405180910390a2565b5f819050919050565b6103ea816103d8565b82525050565b5f6020820190506104035f8301846103e1565b92915050565b5f80fd5b5f73ffffffffffffffffffffffffffffffffffffffff82169050919050565b5f6104368261040d565b9050919050565b6104468161042c565b8114610450575f80fd5b50565b5f813590506104618161043d565b92915050565b5f6020828403121561047c5761047b610409565b5b5f61048984828501610453565b91505092915050565b61049b816103d8565b81146104a5575f80fd5b50565b5f813590506104b681610492565b92915050565b5f602082840312156104d1576104d0610409565b5b5f6104de848285016104a8565b91505092915050565b6104f08161042c565b82525050565b5f6020820190506105095f8301846104e7565b92915050565b5f82825260208201905092915050565b7f496e73756666696369656e742062616c616e63650000000000000000000000005f82015250565b5f61055360148361050f565b915061055e8261051f565b602082019050919050565b5f6020820190508181035f83015261058081610547565b9050919050565b7f4e487b71000000000000000000000000000000000000000000000000000000005f52601160045260245ffd5b5f6105be826103d8565b91506105c9836103d8565b92508282039050818111156105e1576105e0610587565b5b92915050565b7f4465706f73697420616d6f756e74206d757374206265206772656174657220745f8201527f68616e207a65726f000000000000000000000000000000000000000000000000602082015250565b5f61064160288361050f565b915061064c826105e7565b604082019050919050565b5f6020820190508181035f83015261066e81610635565b9050919050565b5f61067f826103d8565b915061068a836103d8565b92508282019050808211156106a2576106a1610587565b5b9291505056fea2646970667358221220067bbd98bb3fd11f126ed37cf351af4c5f33b3b6d33ee664279d39d75fa30e4864736f6c63430008150033",
  "immutableReferences": {},
  "source": "// SPDX-License-Identifier: MIT\r\npragma solidity ^0.8.0;\r\n\r\ncontract Remittance {\r\n    address public owner;\r\n    mapping(address => uint256) public balances;\r\n\r\n    event Deposit(address indexed sender, uint256 amount);\r\n    event Withdrawal(address indexed receiver, uint256 amount);\r\n\r\n    constructor() {\r\n        owner = msg.sender;\r\n    }\r\n\r\n    function deposit() public payable {\r\n        require(msg.value > 0, \"Deposit amount must be greater than zero\");\r\n        balances[msg.sender] += msg.value;\r\n        emit Deposit(msg.sender, msg.value);\r\n    }\r\n\r\n    function withdraw(uint256 amount) public {\r\n        require(balances[msg.sender] >= amount, \"Insufficient balance\");\r\n        balances[msg.sender] -= amount;\r\n        payable(msg.sender).transfer(amount);\r\n        emit Withdrawal(msg.sender, amount);\r\n    }\r\n\r\n    function getBalance() public view returns (uint256) {\r\n        return balances[msg.sender];\r\n    }\r\n}\r\n",
  "sourcePath": "C:\\Users\\noble\\remittance-platform\\backend\\contracts\\Remittance.sol",
  "compiler": {
    "name": "solc",
    "version": "0.8.21+commit.d9974bed.Emscripten.clang"
  },
  "schemaVersion": "3.4.16",
  "updatedAt": "2024-07-12T11:52:24.248Z",
  "devdoc": {
    "kind": "dev",
    "methods": {},
    "version": 1
  },
  "userdoc": {
    "kind": "user",
    "methods": {},
    "version": 1
  }
}